S01600004C69667453696D756C6174696F6E2E737265635A
S11300000C942A000C9480050C9447000C9447002F
S11300100C9447000C9447000C9447000C94EA0598
S11300200C9447000C9447000C9472060C944700FF
S11300300C9447000C94B4050C9447000C944700AE
S11300400C9447000C9447000C9447000C94470010
S11300500C94470011241FBECFE5D8E0DEBFCDBF0E
S113006010E0A0E6B0E0E2ECFDE002C005900D92E5
S1130070A838B107D9F721E0A8E8B0E001C01D9283
S1130080A037B207E1F70E9465000C94DF060C94D8
S11300900000FC014081443030F420E061E080E263
S11300A00E9481030895443039F420EF40E06AE06F
S11300B080E20E9481030895453031F420E040EF4E
S11300C06AE080E20E94810308950E946F030E9407
S11300D0660389E490E00E9461038FE690E00E9449
S11300E0890280E690E00E9489020E944D0580E02A
S11300F090E00895FC018181833059F410926500E9
S113010081E08093240166ED70E080E690E00E9437
S113011079020895A0E6B0E01D96EC911D9791E058
S11301209E0F93701E962C91921741F0F0E0E05AC6
S1130130FF4F818790936D0081E0089580E00895DA
S1130140CF93DF93EC01A0E6B0E01E96EC911E97EE
S11301501D969C911D979E1771F0F0E0E05AFF4F99
S1130160818588831E968C911E978F5F83701E965F
S11301708C9381E001C080E0DF91CF9108958823C2
S113018059F080FD0BC090E09F5F869580FD08C00C
S11301909830D1F788E008958FEF089580E00895AE
S11301A0892F08950E94BF00845008950F931F93D0
S11301B0CF93DF93EC0180EA0E947D0389810E9442
S11301C07D038981873CA9F58B81813091F58A81F2
S11301D0982F907F71F10E94D200C82F8091650002
S11301E0C817E9F000E610E0F801C6838C2F0E94DE
S11301F02E038C2F0E948A006EE072E08FE690E05E
S11302000E9479026EE171E0C8010E94790220E047
S1130210F801468161E080E20E9481030AC06C2FEC
S113022080E10E94F60288E893E10E943B068093F5
S11302306700DF91CF911F910F910895CF93DF93C2
S1130240EC0180EC0E947D0389810E947D038981F9
S1130250873C79F48B818130D9F48A81982F907FFF
S1130260B9F40E94BF0090916600981789F00E942B
S11302708A008981823061F48B819A81891308C054
S113028082958F708093650085E690E00E94A000BF
S1130290DF91CF9108950F931F93CF93DF93EC01D8
S11302A080EB0E947D0389810E947D038981873CC4
S11302B009F03FC08B818130E1F58A81982F907FCE
S11302C0C1F50E94BF00C82F809165008C1701F111
S11302D000E610E0F801C6830E944F038C2F0E94B1
S11302E03F038C2F0E948A0063E372E08FE690E064
S11302F00E94790220E044E66AE082E00E948103E1
S113030020E0F801468161E080E20E94810311C08F
S113031063E372E08FE690E00E94790224E640E015
S11303206AE082E00E9481036091650080E10E949E
S1130330F602DF91CF911F910F9108951F93CF93F0
S1130340DF93D82F162FC82FC295CF708C2F0E9401
S11303502B038D2F6C2F0E94D306911108C0C1115D
S113036006C0212F4D2F62EC81E00E948103DF91B2
S1130370CF911F910895262F482F62E082E00E94BA
S113038081030895FC018181813C29F48EE991E087
S11303900E9427030895823C79F480E00E942B0395
S11303A06EE072E08FE690E00E94790220E040E087
S11303B063E080E20E9481030895CF93DF93EC0110
S11303C08A8182958F700E942B038981823091F4F7
S11303D08A819B8189130EC08093750063E372E068
S11303E08FE690E00E94790220EF40E06AE082E02C
S11303F00E948103DF91CF910895FC018181883CA3
S113040061F463E372E08FE690E00E94790220E0F9
S113041040EF6AE080E10E9481030895CF93DF9367
S1130420FC0121812130E1F422812430C8F4EC0163
S11304308091750082958F700E94EE02803281F463
S11304408A81CFE6D0E08E836DED71E0CE010E940B
S113045079028E816BEB71E08295807F0E94130399
S1130460DF91CF910895FC0121812A3089F5228101
S11304708381281769F18217A0F460917500629551
S11304806F7081E20E94F6026EE072E08FE690E007
S11304900E94790266ED70E080E690E00E947902A5
S11304A008956091750062956F7080E10E94F60274
S11304B06DEF71E08FE690E00E9479026BE471E0E9
S11304C080E690E00E94790280E395E70E943B0673
S11304D00895F894809123018F5F809323010895F8
S11304E080912301815080932301811101C078946C
S11304F008950F931F93CF93DF93EC018B010E9418
S113050069021C830B83DF91CF911F910F910C948F
S11305107002E0917600F0917700A6E7B0E020E069
S1130520E637F20729F0DF010190F081E02DF7CFE3
S11305308D939C93DC01ED93FC9308950F931F938B
S1130540CF93DF930E9469029091A1008091A20051
S1130550981759F084E0989FE0011124CD55DF4F9E
S11305609F5F9F719093A10002C0C0E0D0E00E9401
S113057070022097C9F00091760010917700F0E0A6
S113058006371F0789F0D80112969C91129788812B
S1130590892331F01396ED91FC911497CE010995BE
S11305A0F80100811181EBCFDF91CF911F910F9161
S11305B0089512BE8BE083BF8DE78CBF89B782603C
S11305C089BF80E891E09BBD8ABD1DBC1CBC1FBCDB
S11305D08DE08EBD89B7806189BF0895E82FF0E072
S11305E0EE0FFF1FE859FE4F80810895CF93DF93EC
S11305F0D82FC62F0E9469026C2F70E08D2F807354
S1130600660F771FFB01E859FE4F9081982311F480
S113061094E09183FB01E859FE4F81608083DF9170
S1130620CF910C94700280937C0010927F007093A1
S113063081006093800090917B00981710F481E012
S113064003C0891718F48FEF80937F000895BC01CD
S113065080E00C941303809333010895843070F484
S113066021E030E0A90102C0440F551F8A95E2F74A
S1130670CA0190912D01892B80932D010895843016
S113068068F424E0280F81E090E001C0880F2A95E7
S1130690EAF790912D01892B80932D0108958430E0
S11306A078F421E030E0A90102C0440F551F8A9577
S11306B0E2F7CA01809590912D01892380932D0141
S11306C0089590932A0180932901089510BC8CE029
S11306D089B986E880BD88E98AB9789408958FEF4E
S11306E087BB84BB8ABB11BA0E94660385B783604B
S11306F085BF8BB780648BBF08958CB95D9BFECF9B
S113070008950F931F93CF93DF93C82F062FD42FF1
S1130710122F0E9469028091A200E82FF0E0AF013D
S11307204F5F5F4F4F7155272091A10030E0421772
S1130730530771F48FEF0E947D0380E00E947D03D4
S11307408FEF0E947D038EED0E947D038DEAF9CF29
S1130750EE0FFF1FEE0FFF1FED55FF4F01831383B5
S1130760D283C0838F5F8F718093A200DF91CF917A
S11307701F910F910C947002DF92EF92FF920F93EE
S11307801F93CF93DF93C8E6D1E000E010E0EE249E
S1130790E394F12C8981811124C0488140FF23C056
S11307A04E7F4883202F65EC80E10E94810388817D
S11307B04091250184FF0AC09701002E01C0220F39
S11307C00A94EAF7242B209325010DC0C701002EBB
S11307D001C0880F0A94EAF7809584238093250149
S11307E002C0815089830F5F1F4F22960430110588
S11307F089F6DF91CF911F910F91FF90EF90DF90D9
S11308000895DB018230B1F58C91982F9072282FD6
S11308102076D9F121E0382F307184FF20E099232C
S113082011F094E001C090E08F70890F41E050E036
S113083002C0440F551F8A95E2F7809127019091D9
S11308402801BA0160957095862397239093280117
S113085080932701332351F080912701909128013F
S1130860842B952B909328018093270167EC81E0DA
S11308700C948103833049F4E0912901F0912A0119
S1130880309719F0642FCD01099408959091A00038
S1130890911105C08093A00010929F00089540918B
S11308A09F00411104C0825080939F0015C0E091C5
S11308B09E00E41798F421E02E0F20939E00F0E0B0
S11308C0E057FF4F8083421309C060E970E0892F2D
S11308D00E9401041092A00010929E000895CF93EC
S11308E080918E0090918F00019690938F00809359
S11308F08E0083709927892B21F580918D008F5F5D
S113090080938D008370A82FB0E0AA0FBB1FA85955
S1130910BE4F1196EC9111979C9194FF03C094E003
S11309209E1BE92FF0E0EE57FF4F21E030E0A901D4
S113093002C0440F551F8A95E2F7CA019081892BA2
S113094085BB80918C008F5F80938C0020912D015A
S1130950222301F18370622F70E040E150E0082E01
S113096002C0440F551F0A94E2F746235723452B30
S113097011F080933001082E02C0759567950A9492
S1130980E2F760FD80932E01822F807F19F0909111
S1130990310101C091E02F7019F020912F0101C0A5
S11309A021E080912C01811104C030917B003F73C0
S11309B001C03FE380913401811103C08091330170
S11309C001C087E08093320180912B0160E4869F0F
S11309D0A001112460E8969FC0011124842B832B6D
S11309E088BB8091300198E0899FA00111249091E7
S11309F02E0130E2939FC0011124842B30913201E7
S1130A00382B40E8249FC0011124832B8BBB909189
S1130A104601809147019817B9F00E946902E0915C
S1130A20460181E08E0F80934601F0E0E85BFE4FC3
S1130A30C081809146018F71809346010E947002AB
S1130A408C2F0E944604E3CF80918A0090918B0002
S1130A509C012F5F3F4F30938B0020938A008F3F80
S1130A609F40C9F4809124018823A9F084E00E9466
S1130A707D0386E00E947D0385EA0E947D038AE56A
S1130A800E947D03809126010E947D0380912501AF
S1130A90CF910C947D03CF9108958AEC0E947D033D
S1130AA010922C01109231011092340110922F01F6
S1130AB010922B011092690180E2809368011092D8
S1130AC06B0180936A0110926D0180936C01109206
S1130AD06F0180936E018FE180937B0080937C0093
S1130AE00E94D90220E040E061EC81E00E94810391
S1130AF08EEF0E947D030E949E020E946F04FBCF32
S1130B001F920F920FB60F9211242F933F934F937E
S1130B105F936F937F938F939F93AF93BF93EF9361
S1130B20FF9380912701909128019160909328016F
S1130B3080932701409127015091280120E069EC1E
S1130B4080E10E948103FF91EF91BF91AF919F914A
S1130B508F917F916F915F914F913F912F910F9062
S1130B600FBE0F901F9018951F920F920FB60F9201
S1130B7011242F933F938F939F93EF93FF935F9B46
S1130B801EC0809147012091460190E001968F712B
S1130B90992730E08217930789F08CB1E0914701DF
S1130BA091E09E0F90934701F0E0E85BFE4F808355
S1130BB0809147018F7180934701E1CF5798FF914E
S1130BC0EF919F918F913F912F910F900FBE0F90B6
S1130BD01F9018951F920F920FB60F9211242F9306
S1130BE03F934F935F936F937F938F939F93AF93B1
S1130BF0BF93EF93FF93809189008F5F8093890067
S1130C00909188009F5F9093880060917D000E947E
S1130C10D306911114C090917B0060917C009617CB
S1130C2061F080917F00890F80937B00E0918000C8
S1130C30F0918100309709F0099510928900809114
S1130C4088006CE00E94D306911104C010928800C1
S1130C500E94BC03FF91EF91BF91AF919F918F913F
S1130C607F916F915F914F913F912F910F900FBEA4
S1130C700F901F901895FF920F931F93CF93DF93BC
S1130C80F09045012F2D30E0C0E0D0E0A9010C2EFA
S1130C9002C0559547950A94E2F740FD18C08C01AF
S1130CA00E94690221E030E00C2E01C0220F0A9458
S1130CB0EAF72F2920934501FE01EE0FFF1FEB5C9D
S1130CC0FE4F118300830E9470028C2F05C0219671
S1130CD0C830D105D9F68FEFDF91CF911F910F91D5
S1130CE0FF9008951F920F920FB60F921124CF9286
S1130CF0DF92FF920F931F932F933F934F935F9332
S1130D006F937F938F939F93AF93BF93CF93DF930F
S1130D10EF93FF9305E311E0C0E0D0E0CC24C3944B
S1130D20D12CF09045018F2D90E00C2E02C09595AA
S1130D3087950A94E2F780FF18C0F80180819181B9
S1130D40019791838083892B81F420E040E068EC53
S1130D5081E00E948103C6010C2E01C0880F0A9411
S1130D60EAF78095F822F092450121960E5F1F4F15
S1130D70C830D105B1F6FF91EF91DF91CF91BF91CA
S1130D80AF919F918F917F916F915F914F913F911F
S1130D902F911F910F91FF90DF90CF900F900FBE76
S1130DA00F901F901895991B79E004C0991F96170E
S1130DB008F0961B881F7A95C9F780950895F894D2
S1050DC0FFCF5F
S1130DC20000FF7A000000000000000000000000A4
S1130DD200FFC201020076000000001F000400FFB1
S10B0DE2000000103070F00065
S9030000FC
