S01600004C69667453696D756C6174696F6E2E737265635A
S11300000C942A000C9486050C9447000C94470029
S11300100C9447000C9447000C9447000C94F00592
S11300200C9447000C9447000C9497060C944700DA
S11300300C9447000C94BA050C9447000C944700A8
S11300400C9447000C9447000C9447000C94470010
S11300500C94470011241FBECFE5D8E0DEBFCDBF0E
S113006010E0A0E6B0E0ECE0FEE002C005900D92E6
S1130070A838B107D9F721E0A8E8B0E001C01D9283
S1130080A137B207E1F70E9465000C9404070C94B1
S11300900000FC014081443030F420E061E080E263
S11300A00E9487030895443039F420EF40E06AE069
S11300B080E20E9487030895453031F420E040EF48
S11300C06AE080E20E94870308950E9475030E94FB
S11300D06C0389E490E00E9467038FE690E00E943D
S11300E07E0280E690E00E947E020E94530580E03A
S11300F090E00895FC018181833059F410926500E9
S113010081E08093250161E071E080E690E00E9447
S11301106E020895A0E6B0E01D96EC911D9791E063
S11301209E0F93701E962C91921741F0F0E0E05AC6
S1130130FF4F818790936D0081E0089580E00895DA
S1130140CF93DF93EC01A0E6B0E01E96EC911E97EE
S11301501D969C911D979E1771F0F0E0E05AFF4F99
S1130160818588831E968C911E978F5F83701E965F
S11301708C9381E001C080E0DF91CF9108958823C2
S113018059F080FD0BC090E09F5F869580FD08C00C
S11301909830D1F788E008958FEF089580E00895AE
S11301A0892F08950E94BF0084500895CF93FC01C5
S11301B02181273C21F52381213009F58281982F63
S11301C0907F31F00E94D200C82F0E94230305C003
S11301D00E94BF00C82F0E94340380916600C81794
S11301E071F08091680090E00C2E02C0959587957F
S11301F00A94E2F780FD03C08C2F0E948A00CF91FD
S11302000895CF93DF93EC0180EA0E9483038981F0
S11302100E948303CE010E94D6008981873CB1F4F9
S11302208B81813099F486E690E00E94A0008823B7
S113023069F060E671E080E690E00E946E0220E0E2
S11302404091660061E082E00E948703DF91CF91D4
S11302500895CF93DF93EC0180EB0E94830389819F
S11302600E948303CE010E94D6008881803129F543
S1130270809165000E94E3028032F9F486E690E002
S11302800E94A000811107C061E071E080E690E067
S11302900E946E0212C069E272E08FE690E00E9452
S11302A06E0260E671E080E690E00E946E0220E05B
S11302B044E66AE082E00E948703DF91CF910895CB
S11302C0CF93DF93EC0180EC0E94830389810E9429
S11302D08303CE010E94D6008881803139F420E066
S11302E04091660061E080E20E9487038981823048
S11302F099F48B819A8189130FC082958F70C0E61F
S1130300D0E08D830E9444038D810E94560369E2EC
S113031071E0CE010E946E02DF91CF9108951F9388
S1130320CF93DF93D82F162FC82FC295CF708C2F61
S11303300E9420038D2F6C2F0E94F806911108C093
S1130340C11106C0212F4D2F62EC81E00E9487036A
S1130350DF91CF911F910895262F482F62E082E00C
S11303600E9487030895FC018181813C29F48FE870
S113037091E00E941C030895823C79F480E00E947D
S113038020036FEF71E08FE690E00E946E0220E0A0
S113039040E063E080E20E9487030895CF93DF93F7
S11303A0EC018A8182958F700E94200389818230BA
S11303B091F48A819B8189130EC08093750069E250
S11303C072E08FE690E00E946E0220EF40E06AE067
S11303D082E00E948703DF91CF910895FC0181811F
S11303E0883C61F469E272E08FE690E00E946E025C
S11303F020E040EF6AE080E10E9487030895CF93F4
S1130400DF93EC0180ED0E9483038A810E948303C1
S113041089818130D9F48A818430C0F48091750057
S113042082958F700E94E302803281F48A81CFE644
S1130430D0E08E836EEC71E0CE010E946E028E815C
S11304406CEA71E08295807F0E940803DF91CF916E
S11304500895CF93DF93EC018091880081110E946D
S1130460780689818A3039F59A818B81981719F138
S1130470891770F46091750062956F7081E20E9433
S1130480EB026FEF71E08FE690E00E946E0213C002
S11304906091750062956F7080E10E94EB026EEED0
S11304A071E08FE690E00E946E0288E99AE30E9470
S11304B0410680938800DF91CF910895F89480914C
S11304C024018F5F80932401089580912401815039
S11304D080932401811101C0789408950F931F9390
S11304E0CF93DF93EC018B010E945E021C830B838C
S11304F0DF91CF911F910F910C946502E0917600EA
S1130500F0917700A6E7B0E020E0E637F20729F0A3
S1130510DF010190F081E02DF7CF8D939C93DC01F6
S1130520ED93FC9308950F931F93CF93DF930E9451
S11305305E029091A2008091A300981759F084E084
S1130540989FE0011124CC55DF4F9F5F9F719093DA
S1130550A20002C0C0E0D0E00E9465022097C9F06A
S11305600091760010917700F0E006371F0789F0BC
S1130570D80112969C9112978881892331F01396A1
S1130580ED91FC911497CE010995F8010081118138
S1130590EBCFDF91CF911F910F91089512BE8BE0A5
S11305A083BF8DE78CBF89B7826089BF80E891E003
S11305B09BBD8ABD1DBC1CBC1FBC8DE08EBD89B714
S11305C0806189BF0895E82FF0E0EE0FFF1FE7591F
S11305D0FE4F80810895CF93DF93D82FC62F0E94BA
S11305E05E026C2F70E08D2F8073660F771FFB0106
S11305F0E759FE4F9081982311F494E09183FB0115
S1130600E759FE4F81608083DF91CF910C9465029E
S113061080937C0010927F0070938100609380002F
S113062090917B00981710F481E003C0891718F4A7
S11306308FEF80937F000895BC0180E00C94080341
S1130640809334010895843070F421E030E0A901EE
S113065002C0440F551F8A95E2F7CA0190912E01FA
S1130660892B80932E010895843068F424E0280FA8
S113067081E090E001C0880F2A95EAF790912E015D
S1130680892B80932E010895843078F421E030E0A2
S1130690A90102C0440F551F8A95E2F7CA0180954B
S11306A090912E01892380932E010895843070F453
S11306B024E0280F81E090E001C0880F2A95EAF732
S11306C0809590912E01892380932E010895909313
S11306D02B0180932A01089510BC8CE089B986E827
S11306E080BD88E98AB9789408958FEF87BB84BB6D
S11306F08ABB11BA0E946C0385B7836085BF8BB730
S113070080648BBF08958CB95D9BFECF08950F93D1
S11307101F93CF93DF93C82F062FD42F122F0E943D
S11307205E028091A300E82FF0E0AF014F5F5F4FBE
S11307304F7155272091A20030E04217530771F4FE
S11307408FEF0E94830380E00E9483038FEF0E9457
S113075083038EED0E9483038DEAF9CFEE0FFF1F12
S1130760EE0FFF1FEC55FF4F01831383D283C08329
S11307708F5F8F718093A300DF91CF911F910F91B1
S11307800C946502DF92EF92FF920F931F93CF9325
S1130790DF93C9E6D1E000E010E0EE24E394F12C0D
S11307A08981811124C0488140FF23C04E7F488342
S11307B0202F65EC80E10E94870388814091260107
S11307C084FF0AC09701002E01C0220F0A94EAF7A1
S11307D0242B209326010DC0C701002E01C0880FD1
S11307E00A94EAF7809584238093260102C08150FD
S11307F089830F5F1F4F22960430110589F6DF911C
S1130800CF911F910F91FF90EF90DF900895DB013E
S11308108230B1F58C91982F9072282F2076D9F1DF
S113082021E0382F307184FF20E0992311F094E007
S113083001C090E08F70890F41E050E002C0440F86
S1130840551F8A95E2F78091280190912901BA01F8
S113085060957095862397239093290180932801AE
S1130860332351F08091280190912901842B952BF9
S1130870909329018093280167EC81E00C9487030D
S1130880833049F4E0912A01F0912B01309719F05B
S1130890642FCD01099408959091A100911105C090
S11308A08093A1001092A00008954091A0004111EE
S11308B004C082508093A00015C0E0919F00E4170B
S11308C098F421E02E0F20939F00F0E0EF56FF4FA5
S11308D08083421309C061E970E0892F0E940704F4
S11308E01092A10010929F000895CF9380918F00E1
S11308F09091900001969093900080938F00837064
S11309009927892B21F580918E008F5F80938E002B
S11309108370A82FB0E0AA0FBB1FA759BE4F119632
S1130920EC9111979C9194FF03C094E09E1BE92FD6
S1130930F0E0EE57FF4F21E030E0A90102C0440F80
S1130940551F8A95E2F7CA019081892B85BB809156
S11309508D008F5F80938D0020912E01222301F161
S11309608370622F70E040E150E0082E02C0440F13
S1130970551F0A94E2F746235723452B11F0809321
S11309803101082E02C0759567950A94E2F760FD5F
S113099080932F01822F807F19F09091320101C042
S11309A091E02F7019F02091300101C021E0809175
S11309B02D01811104C030917B003F7301C03FE3DE
S11309C080913501811103C08091340101C087E019
S11309D08093330180912C0160E4869FA00111244F
S11309E060E8969FC0011124842B832B88BB8091DF
S11309F0310198E0899FA001112490912F0130E2E8
S1130A00939FC0011124842B30913301382B40E88B
S1130A10249FC0011124832B8BBB909147018091AB
S1130A2048019817B9F00E945E02E091470181E005
S1130A308E0F80934701F0E0E75BFE4FC081809109
S1130A4047018F71809347010E9465028C2F0E9499
S1130A504C04E3CF80918B0090918C009C012F5F1C
S1130A603F4F30938C0020938B008F3F9F40C9F4FD
S1130A70809125018823A9F084E00E94830386E005
S1130A800E94830385EA0E9483038AE50E9483030C
S1130A90809127010E94830380912601CF910C94B9
S1130AA08303CF9108958AEC0E94830310922D0151
S1130AB010923201109235011092300110922C01E3
S1130AC010926A0180E28093690110926C01809314
S1130AD06B0110926E0180936D01109270018093EE
S1130AE06F018FE180937B0080937C000E94CE0293
S1130AF020E040E061EC81E00E9487038EEF0E94D9
S1130B0083030E9493020E947504FBCF1F920F92ED
S1130B100FB60F9211242F933F934F935F936F93CC
S1130B207F938F939F93AF93BF93EF93FF938091A2
S1130B3028019091290191609093290180932801C3
S1130B40409128015091290120E069EC80E10E9444
S1130B508703FF91EF91BF91AF919F918F917F9107
S1130B606F915F914F913F912F910F900FBE0F9016
S1130B701F9018951F920F920FB60F9211242F9366
S1130B803F938F939F93EF93FF935F9B1EC080913E
S1130B9048012091470190E001968F71992730E038
S1130BA08217930789F08CB1E091480191E09E0F80
S1130BB090934801F0E0E75BFE4F80838091480109
S1130BC08F7180934801E1CF5798FF91EF919F91E6
S1130BD08F913F912F910F900FBE0F901F901895FA
S1130BE01F920F920FB60F9211242F933F934F939E
S1130BF05F936F937F938F939F93AF93BF93EF9381
S1130C00FF9380918A008F5F80938A00909189007E
S1130C109F5F9093890060917D000E94F806911176
S1130C2014C090917B0060917C00961761F08091D4
S1130C307F00890F80937B00E0918000F091810018
S1130C40309709F0099510928A00809189006CE030
S1130C500E94F806911104C0109289000E94C203F8
S1130C60FF91EF91BF91AF919F918F917F916F9180
S1130C705F914F913F912F910F900FBE0F901F9056
S1130C801895FF920F931F93CF93DF93F090460133
S1130C902F2D30E0C0E0D0E0A9010C2E02C0559504
S1130CA047950A94E2F740FD18C08C010E945E0249
S1130CB021E030E00C2E01C0220F0A94EAF72F291C
S1130CC020934601FE01EE0FFF1FEA5CFE4F1183E5
S1130CD000830E9465028C2F05C02196C830D1057F
S1130CE0D9F68FEFDF91CF911F910F91FF90089567
S1130CF0CF938830D0F4C82F0E945E02EC2FF0E02E
S1130D0081E090E001C0880FCA95EAF78095909140
S1130D104601892380934601EE0FFF1FEA5CFE4FD4
S1130D2011821082CF910C946502CF9108951F9285
S1130D300F920FB60F921124CF92DF92FF920F936E
S1130D401F932F933F934F935F936F937F938F934F
S1130D509F93AF93BF93CF93DF93EF93FF9306E3F8
S1130D6011E0C0E0D0E0CC24C394D12CF090460133
S1130D708F2D90E00C2E02C0959587950A94E2F78A
S1130D8080FF18C0F801808191810197918380834D
S1130D90892B81F420E040E068EC81E00E94870325
S1130DA0C6010C2E01C0880F0A94EAF78095F82238
S1130DB0F092460121960E5F1F4FC830D105B1F65F
S1130DC0FF91EF91DF91CF91BF91AF919F918F915F
S1130DD07F916F915F914F913F912F911F910F914F
S1130DE0FF90DF90CF900F900FBE0F901F9018953B
S1130DF0991B79E004C0991F961708F0961B881F69
S10F0E007A95C9F780950895F894FFCF07
S1130E0C0000FF7A00000000000000000000000059
S1130E1C00FFB301020076000000001F000400FF75
S10B0E2C000000103070F0001A
S9030000FC
