S01600004C69667453696D756C6174696F6E2E737265635A
S11300000C942A000C940F040C9447000C944700A1
S11300100C9447000C9447000C9447000C9479040A
S11300200C9447000C9447000C9401050C94470071
S11300300C9447000C9443040C9447000C94470020
S11300400C9447000C9447000C9447000C94470010
S11300500C94470011241FBECFE5D8E0DEBFCDBF0E
S113006010E0A0E6B0E0E0EEFAE002C005900D92E8
S1130070A837B107D9F721E0A8E7B0E001C01D9285
S1130080A036B207E1F70E9465000C946E050C944B
S11300900000FC014081443030F420E061E080E263
S11300A00E9410020895443039F420EF40E063E0E8
S11300B080E20E9410020895453031F420E040EFC0
S11300C063E080E20E94100208950E94FE010E94F3
S11300D0F50189E490E00E94F00180E690E00E943E
S11300E04B010E94DC0380E090E008951F93CF93BE
S11300F0DF93D82F162FC82FC295CF708C2F0E9454
S1130100ED018D2F6C2F0E946205911108C0C11161
S113011006C0212F4D2F62EC81E00E941002DF9176
S1130120CF911F910895262F482F62E082E00E940C
S113013010020895FC018181813C29F486E790E056
S11301400E94E9010895823C49F480E00E94ED0197
S11301506CED70E080E690E00E943B010895CF933F
S1130160DF93EC018A8182958F700E94ED01898171
S1130170823091F48A819B8189130EC0809366003A
S113018061E071E080E690E00E943B0120EF40E0F6
S113019063E082E00E941002DF91CF91089561E054
S11301A071E080E690E00E943B0120E040EF63E0D4
S11301B080E10E9410020895CF93DF93FC01218116
S11301C02130E1F422812430C8F4EC0180916600EE
S11301D082958F700E94B001803281F48A81C0E6DA
S11301E0D0E08E836FEA70E0CE010E943B018E81E5
S11301F063E970E08295807F0E94D501DF91CF9101
S11302000895FC012181233029F522818381281757
S113021009F1821770F46091660062956F7081E253
S11302200E94B8016CED70E080E690E00E943B0112
S113023008956091660062956F7081E10E94B80133
S11302406FEC70E080E690E00E943B0180E197E271
S11302500E94CA040895F894809113018F5F8093DB
S1130260130108958091130181508093130181112A
S113027001C0789408950F931F93CF93DF93EC01FB
S11302808B010E942B011C830B83DF91CF911F9163
S11302900F910C943201E0916700F0916800A7E699
S11302A0B0E020E0E736F20729F0DF010190F081A9
S11302B0E02DF7CF8D939C93DC01ED93FC9308958F
S11302C00F931F93CF93DF930E942B019091910082
S11302D080919200981759F084E0989FE0011124CE
S11302E0CD56DF4F9F5F9F719093910002C0C0E095
S11302F0D0E00E9432012097C9F00091670010916C
S11303006800F0E007361F0789F0D80112969C9127
S113031012978881892331F01396ED91FC911497FB
S1130320CE010995F80100811181EBCFDF91CF91C6
S11303301F910F91089512BE8BE083BF8DE78CBF90
S113034089B7826089BF80E891E09BBD8ABD1DBCEE
S11303501CBC1FBC8DE08EBD89B7806189BF089528
S1130360E82FF0E0EE0FFF1FE85AFE4F808108955A
S1130370CF93DF93D82FC62F0E942B016C2F70E0F0
S11303808D2F8073660F771FFB01E85AFE4F908113
S1130390982311F494E09183FB01E85AFE4F8160A5
S11303A08083DF91CF910C94320180936D00109281
S11303B07000709372006093710090916C009817B4
S11303C010F481E003C0891718F48FEF8093700054
S11303D00895BC0180E00C94D50180932301089515
S11303E090931A0180931901089510BC8CE089B987
S11303F086E880BD88E98AB9789408958FEF87BB31
S113040084BB8ABB11BA0E94F50185B7836085BF9E
S11304108BB780648BBF08958CB95D9BFECF089524
S11304200F931F93CF93DF93C82F062FD42F122F30
S11304300E942B0180919200E82FF0E0AF014F5F02
S11304405F4F4F7155272091910030E042175307B9
S113045071F48FEF0E940C0280E00E940C028FEF77
S11304600E940C028EED0E940C028DEAF9CFEE0F71
S1130470FF1FEE0FFF1FED56FF4F01831383D2833F
S1130480C0838F5F8F7180939200DF91CF911F9112
S11304900F910C943201DF92EF92FF920F931F930E
S11304A0CF93DF93C8E5D1E000E010E0EE24E394BD
S11304B0F12C8981811124C0488140FF23C04E7FE3
S11304C04883202F65EC80E10E94100288814091CE
S11304D0150184FF0AC09701002E01C0220F0A945F
S11304E0EAF7242B209315010DC0C701002E01C08B
S11304F0880F0A94EAF7809584238093150102C03B
S1130500815089830F5F1F4F22960430110589F6AD
S1130510DF91CF911F910F91FF90EF90DF9008959D
S1130520DB018230B1F58C91982F9072282F2076C0
S1130530D9F121E0382F307184FF20E0992311F0A4
S113054094E001C090E08F70890F41E050E002C058
S1130550440F551F8A95E2F7809117019091180175
S1130560BA01609570958623972390931801809320
S11305701701332351F08091170190911801842BB6
S1130580952B909318018093170167EC81E00C94EC
S11305901002833049F4E0911901F0911A01309767
S11305A019F0642FCD010994089590919000911150
S11305B005C08093900010928F00089540918F00A1
S11305C0411104C0825080938F0015C0E0918E00C9
S11305D0E41798F421E02E0F20938E00F0E0E05809
S11305E0FF4F8083421309C060E870E0892F0E94A6
S11305F090021092900010928E000895CF938091F3
S11306007E0090917F00019690937F0080937E00FE
S113061083709927892B21F580917D008F5F8093CA
S11306207D008370A82FB0E0AA0FBB1FA85ABE4F4D
S11306301196EC9111979C9194FF03C094E09E1B3A
S1130640E92FF0E0ED58FF4F21E030E0A90102C0AE
S1130650440F551F8A95E2F7CA019081892B85BB07
S113066080917C008F5F80937C0020911D01222368
S113067001F18370622F70E040E150E0082E02C067
S1130680440F551F0A94E2F746235723452B11F0D4
S113069080932001082E02C0759567950A94E2F7AD
S11306A060FD80931E01822F807F19F090912101BB
S11306B001C091E02F7019F020911F0101C021E0C9
S11306C080911C01811104C030916C003F7301C002
S11306D03FE380912401811103C08091230101C073
S11306E087E08093220180911B0160E4869FA00132
S11306F0112460E8969FC0011124842B832B88BBAE
S11307008091200198E0899FA001112490911E01FD
S113071030E2939FC0011124842B30912201382BA5
S113072040E8249FC0011124832B8BBB9091360198
S1130730809137019817B9F00E942B01E09136019E
S113074081E08E0F80933601F0E0E85CFE4FC081BB
S1130750809136018F71809336010E9432018C2F73
S11307600E94D502E3CF80917A0090917B009C0196
S11307702F5F3F4F30937B0020937A008F3F9F4041
S1130780C9F4809114018823A9F084E00E940C022A
S113079086E00E940C0285EA0E940C028AE50E940F
S11307A00C02809116010E940C0280911501CF91D8
S11307B00C940C02CF9108958AEC0E940C021092C2
S11307C01C01109221011092240110921F01109219
S11307D01B011092590180E28093580110925B0131
S11307E080935A0110925D0180935C0110925F0125
S11307F080935E018FE180936C0080936D000E9472
S11308009B0120E040E061EC81E00E9410028EEF49
S11308100E940C020E9460010E94FE02FBCF1F9204
S11308200F920FB60F9211242F933F934F935F9320
S11308306F937F938F939F93AF93BF93EF93FF93A4
S11308408091170190911801916090931801809301
S11308501701409117015091180120E069EC80E1E3
S11308600E941002FF91EF91BF91AF919F918F91E0
S11308707F916F915F914F913F912F910F900FBE98
S11308800F901F9018951F920F920FB60F9211247C
S11308902F933F938F939F93EF93FF935F9B1EC080
S11308A0809137012091360190E001968F7199274C
S11308B030E08217930789F08CB1E091370191E021
S11308C09E0F90933701F0E0E85CFE4F80838091A7
S11308D037018F7180933701E1CF5798FF91EF91E2
S11308E09F918F913F912F910F900FBE0F901F906A
S11308F018951F920F920FB60F9211242F933F93C6
S11309004F935F936F937F938F939F93AF93BF9313
S1130910EF93FF93809179008F5F8093790090919A
S113092078009F5F9093780060916E000E9462054A
S1130930911114C090916C0060916D00961761F054
S113094080917000890F80936C00E0917100F091A8
S11309507200309709F0099510927900809178001F
S11309606CE00E946205911104C0109278000E940C
S11309704B02FF91EF91BF91AF919F918F917F9126
S11309806F915F914F913F912F910F900FBE0F90F8
S11309901F901895FF920F931F93CF93DF93F090BE
S11309A035012F2D30E0C0E0D0E0A9010C2E02C0AB
S11309B0559547950A94E2F740FD18C08C010E94B2
S11309C02B0121E030E00C2E01C0220F0A94EAF73B
S11309D02F2920933501FE01EE0FFF1FEB5DFE4F23
S11309E0118300830E9432018C2F05C02196C830E8
S11309F0D105D9F68FEFDF91CF911F910F91FF9021
S1130A0008951F920F920FB60F921124CF92DF9286
S1130A10FF920F931F932F933F934F935F936F9383
S1130A207F938F939F93AF93BF93CF93DF93EF9372
S1130A30FF9305E211E0C0E0D0E0CC24C394D12CB4
S1130A40F09035018F2D90E00C2E02C0959587957E
S1130A500A94E2F780FF18C0F80180819181019720
S1130A6091838083892B81F420E040E068EC81E06D
S1130A700E941002C6010C2E01C0880F0A94EAF7E6
S1130A808095F822F092350121960E5F1F4FC830F1
S1130A90D105B1F6FF91EF91DF91CF91BF91AF9165
S1130AA09F918F917F916F915F914F913F912F9182
S1130AB01F910F91FF90DF90CF900F900FBE0F907A
S1130AC01F901895991B79E004C0991F961708F098
S1130AD0961B881F7A95C9F780950895F894FFCFDF
S1130AE00000FF9A00020067000000001F000400DD
S10B0AF0FF000000103070F05B
S9030000FC
